:100000000C9435000C945D000C945D000C945D0024
:100010000C945D000C945D000C945D000C945D00EC
:100020000C945D000C945D000C945D000C945D00DC
:100030000C945D000C945D000C945D000C945D00CC
:100040000C9486010C945D000C94F6010C94D00184
:100050000C945D000C945D000C945D000C945D00AC
:100060000C945D000C945D007F0611241FBECFEF41
:10007000D8E0DEBFCDBF11E0A0E0B1E0E4E9F0E1FF
:1000800002C005900D92AE34B107D9F724E0AEE47A
:10009000B1E001C01D92AB30B207E1F710E0C5E35B
:1000A000D0E004C02197FE010E94AC06C433D10702
:1000B000C9F70E9428020C9448080C940000AF92E3
:1000C000BF92CF92DF92EF92FF920F931F93CF9345
:1000D000DF936C017B018B01040F151FEB015E01A7
:1000E000AE18BF08C017D10759F06991D601ED913C
:1000F000FC910190F081E02DC6010995892B79F7DB
:10010000C501DF91CF911F910F91FF90EF90DF908C
:10011000CF90BF90AF900895FC01538D448D252F53
:1001200030E0842F90E0821B930B541710F0CF9691
:10013000089501970895FC01918D828D981761F0C3
:10014000A28DAE0FBF2FB11D5D968C91928D9F5FDA
:100150009F73928F90E008958FEF9FEF0895FC01B9
:10016000918D828D981731F0828DE80FF11D858D6C
:1001700090E008958FEF9FEF0895FC01918D228DFF
:10018000892F90E0805C9F4F821B91098F73992784
:1001900008958EE693E00E94BD0021E0892B09F4CA
:1001A00020E0822F089580E090E0892B29F00E94C2
:1001B000C90081110C9400000895FC01A48DA80FC2
:1001C000B92FB11DA35ABF4F2C91848D90E0019699
:1001D0008F739927848FA689B7892C93A089B189B9
:1001E0008C91837080648C93938D848D981306C05A
:1001F0000288F389E02D80818F7D80830895EF92BE
:10020000FF920F931F93CF93DF93EC0181E0888FD0
:100210009B8D8C8D98131AC0E889F989808185FFA0
:1002200015C09FB7F894EE89FF896083E889F98942
:1002300080818370806480839FBF81E090E0DF9144
:10024000CF911F910F91FF90EF900895F62E0B8D97
:1002500010E00F5F1F4F0F731127E02E8C8D8E1152
:100260000CC00FB607FCFACFE889F989808185FFB9
:10027000F5CFCE010E94DD00F1CFEB8DEC0FFD2F0D
:10028000F11DE35AFF4FF0829FB7F8940B8FEA8974
:10029000FB8980818062CFCFCF93DF93EC01888D83
:1002A0008823B9F0AA89BB89E889F9898C9185FDF1
:1002B00003C0808186FD0DC00FB607FCF7CF8C917F
:1002C00085FFF2CF808185FFEDCFCE010E94DD005A
:1002D000E9CFDF91CF910895009749F0FC0120818B
:1002E00031812150310981E02330310508F080E06F
:1002F0000895FC0101900020E9F73197AF01481BF8
:10030000590BBC018EE693E00C945F001F920F9294
:100310000FB60F9211242F933F938F939F93AF9318
:10032000BF9380916A0390916B03A0916C03B0918D
:100330006D033091690323E0230F2D3758F50196A3
:10034000A11DB11D2093690380936A0390936B03F1
:10035000A0936C03B0936D03809165039091660345
:10036000A0916703B09168030196A11DB11D809310
:10037000650390936603A0936703B0936803BF91EE
:10038000AF919F918F913F912F910F900FBE0F9042
:100390001F90189526E8230F0296A11DB11DD2CFFC
:1003A0001F920F920FB60F9211242F933F934F93EA
:1003B0005F936F937F938F939F93AF93BF93EF93CD
:1003C000FF938EE693E00E94DD00FF91EF91BF91D5
:1003D000AF919F918F917F916F915F914F913F91DD
:1003E0002F910F900FBE0F901F9018951F920F9294
:1003F0000FB60F9211242F938F939F93EF93FF9338
:10040000E0917E03F0917F038081E0918403F0917D
:10041000850382FD1BC09081809187038F5F8F735E
:1004200020918803821741F0E0918703F0E0E259C0
:10043000FC4F958F80938703FF91EF919F918F9150
:100440002F910F900FBE0F901F9018958081F4CFC1
:10045000CF93DF93CDB7DEB7A1970FB6F894DEBF89
:100460000FBECDBF789484B5826084BD84B58160B1
:1004700084BD85B5826085BD85B5816085BD80916F
:100480006E00816080936E001092810080918100E7
:1004900082608093810080918100816080938100DF
:1004A000809180008160809380008091B1008460A1
:1004B0008093B1008091B00081608093B000809102
:1004C0007A00846080937A0080917A0082608093C1
:1004D0007A0080917A00816080937A0080917A001E
:1004E000806880937A001092C100E0917E03F091C1
:1004F0007F0382E08083E0917A03F0917B03108296
:10050000E0917C03F0917D0380E18083109286036B
:10051000E0918203F091830386E08083E091800381
:10052000F0918103808180618083E0918003F0916C
:100530008103808188608083E0918003F091810352
:10054000808180688083E0918003F09181038081C5
:100550008F7D8083E9EFF1E090E080E024E030E0FF
:1005600047E654E467E872ECA0E7CA2EAFEDDA2E56
:10057000A0ECEA2EA1ECFA2EBCEF8B2EB5EE9B2E52
:10058000B8E6AB2EBFEBBB2EA1E01BE4412E11E57C
:10059000512E1FE8612E1DEB712E009709F000C14E
:1005A0003093FA012093F9011092FB011092FC01A3
:1005B0001092FD011092FE014093FF015093000242
:1005C0006093010270930202C0920302D09204026F
:1005D000E0920502F09206028092070290920802D1
:1005E000A0920902B0920A0210920B0210920C0221
:1005F00010920D0210920E0210920F02A0931002A0
:100600001092110210921202109213021092140210
:1006100010921502109216021092170210921802F0
:100620004092190250921A0260921B0270921C02B0
:100630000196B4968A30910509F0AFCF89EF91E029
:1006400065ED71E021EB31E0EEE4F1E041E0118293
:10065000108212821382148215824683D9011D9260
:100660001D921D921D929D01DB011D921D921D92F6
:100670001D92BD01908787838496928781873B96E0
:10068000B1E0E13BFB0719F72FB7F89480916A03BB
:1006900090916B03A0916C03B0916D032FBF8853B1
:1006A0009F4FAF4FBF4F8093610390936203A0931E
:1006B0006303B093640384E191E00E9479018BE3CA
:1006C00091E00E9479018EE391E00E94790119A2E4
:1006D00080E388A381E38F8FCE014F960E9479013A
:1006E0008BE391E00E947901E3E02E2E312C2FB7AD
:1006F000F89480916A0390916B03A0916C03B09180
:100700006D032FBF409161035091620360916303B9
:1007100070916403841B950BA60BB70BB7FDBCC18E
:1007200009EF11E0BB24B39462E0662E712C88249B
:100730008394912CF8018789882309F443C180812F
:1007400091818130910509F4DAC008F44EC08230FD
:10075000910509F4ECC0039709F401C182899389DA
:10076000A489B58988539F4FAF4FBF4F828B938B1E
:10077000A48BB58B87389341A105B10508F480C0DF
:1007800087E694E4A7E8B2ECF80186839783A08714
:10079000B18711821082128A138A148A158A59C06D
:1007A00031832083128213821482158246835783F9
:1007B00060877187C286D386E486F58686869786AB
:1007C000A08AB18A128A138A148A158A168AA78B7C
:1007D000108E118E128E138E148E158E168E178E0D
:1007E00010A211A212A213A223CFC280D380E48050
:1007F000F58020E030E0A901648D758D868D978DA0
:100800000E94D607181654F02FE834E447E852EC5B
:10081000C701B6010E941F0787FFB9C0F801C68251
:10082000D782E086F18680E79FEDA0ECB1EC82876D
:100830009387A487B5878CEF95EEA8E6BFEB8687F4
:100840009787A08BB18B91828082148E158E168E25
:10085000178EF80186898B25868B86819781A085E6
:10086000B18582839383A483B583808D918DA28D7E
:10087000B38D0196A11DB11D808F918FA28FB38F73
:10088000D8018D919C918130910509F412C108F431
:100890007EC08230910509F444C1039709F092C0EB
:1008A00028EC35E14DED5FE3F801628173818481CD
:1008B00095810E94B2066B017C0120E030E046E8A1
:1008C00052EC0E941F0787FD4AC12AEC32EF49E42F
:1008D00051E7C701B6010E94D607181644F43AEC56
:1008E000C32E32EFD32E39E4E32E31E7F32ED801B5
:1008F0001296CD92DD92ED92FC92159763C0C28064
:10090000D380E480F5802285338544855585C701F1
:10091000B6010E94D60787FDCCC0D8011696CD92AD
:10092000DD92ED92FC9219976D927C9292CFC280EB
:10093000D380E480F5802BE43AEE47EE51ECC7011A
:10094000B6010E941F0787FFECC0D8011696CD9212
:10095000DD92ED92FC9219972D923C927ACFC28053
:10096000D380E480F58020E13AEF45E852ECC701FE
:10097000B6010E941F0787FF93CFD8011696CD922C
:10098000DD92ED92FC9219971D921C9262CF2DEC94
:100990003CEC4CE45EE3F80160A171A182A193A15B
:1009A0000E94DB079B01AC01D80112966D917D91ED
:1009B0008D919C9115970E94B306F8016283738311
:1009C000848395830C5D1F4FE1E6F3E0E017F107A8
:1009D00009F0B0CE85EDE82E81E0F82E91EBC92E1E
:1009E00091E0D92E0EE411E0D80116968C9116975D
:1009F000882371F01796AD90BC901897A114B1049C
:100A000039F019966D907C906114710409F0AEC0B4
:100A1000F6011082118212821382D7011D921D925B
:100A20001D921C921397055F1F4FF4E0CF0ED11C4F
:100A300024E0E20EF11C51E0013B1507A9F642E06B
:100A400050E062E171E08EE693E00E945F0010E00A
:100A500000E0B80165507E4F44E050E08EE693E040
:100A60000E945F000C5D1F4F083681E0180789F770
:100A70008091610390916203A0916303B09164033C
:100A800088539F4FAF4FBF4F809361039093620392
:100A9000A0936303B093640380E090E0892B09F492
:100AA00026CE0E94C900882309F421CE0E940000AE
:100AB0001BCE24E837E44BE051E4D80112966D9147
:100AC0007D918D919C9115970E94B3066B017C01DD
:100AD0002AEC32EF49E451EF0E941F0787FD18C04E
:100AE00020E73FED40EC51ECC701B6010E94D6076C
:100AF000181644F450E7C52E5FEDD52E50ECE52EC8
:100B000051ECF52EF801C282D382E482F5825ACFED
:100B10004AECC42E42EFD42E49E4E42E41EFF42EE9
:100B2000F1CF2DEC3CEC4CE45EE3D8011E966D91C8
:100B30007D918D919C9151970E94DB079B01AC01A7
:100B4000F80162817381848195810E94B306D80186
:100B500012966D937D938D939C93159733CFC12CF3
:100B6000D12C26E8E22E22ECF22EC1CEF601108224
:100B7000118212821382D7011D921D921D921C9226
:100B80001397F801808191818230910509F445C065
:100B900040F4009789F00197A9F1F80111821082C1
:100BA00042CF8430910509F472C0B8F30597A9F7D4
:100BB000D8011D921C9237CFC5010E946C01B82E3E
:100BC000C3010E946C01BB2081F0E1E0F0E0D8019C
:100BD000811108C012961D921D921D921C921597AC
:100BE000E2E0F0E0ED93FC931ECF882309F41BCFE5
:100BF000D80112961D921D921D921C921597E4E049
:100C0000F0E0F0CFC5010E946C0181110CCFC3014F
:100C10000E946C01811107CFCBCF82809380A4808A
:100C2000B580F8EC8F0E911CA11CB11CD801129656
:100C30008D929D92AD92BC921597C501B4010E9410
:100C400024072FE632E143E85AE30E94DB07F6016E
:100C50006083718382839383F0ED8F16F7E09F06A4
:100C6000A104B10408F4DFCE80E090E0A0E8BFE387
:100C7000F301848F958FA68FB78FD80112961D929E
:100C80001D921D921C9215972D923C92CCCE4280C3
:100C9000538064807580B8EC4B0E511C611C711C34
:100CA0004282538264827582C301B2010E9424078A
:100CB0002FE632E143E85AE30E94DB07D7016D9348
:100CC0007D938D939C931397B0ED4B16B7E05B0625
:100CD0006104710408F4A7CE80E090E0A0E8BFE3CF
:100CE000F501848F958FA68FB78FD80112961D922C
:100CF0001D921D921C921597E5E0F0E073CFEEE691
:100D0000F3E01382128288EE93E0A0E0B0E08483E7
:100D10009583A683B78384E091E09183808385ECFB
:100D200090E09587848784EC90E09787868780ECB5
:100D300090E0918B808B81EC90E0938B828B82ECA6
:100D400090E0958B848B86EC90E0978B868B118E50
:100D5000128E138E148E0895EE0FFF1F0590F491DE
:100D6000E02D09945058BB27AA270E94CA060C946C
:100D70009C070E948E0738F00E94950720F039F4F6
:100D80009F3F19F426F40C948B070EF4E095E7FBD3
:100D90000C948507E92F0E94AD0758F3BA17620734
:100DA00073078407950720F079F4A6F50C94CF0714
:100DB0000EF4E0950B2EBA2FA02D0B01B901900176
:100DC0000C01CA01A0011124FF27591B99F0593FBA
:100DD00050F4503E68F11A16F040A22F232F342F02
:100DE0004427585FF3CF469537952795A795F04050
:100DF0005395C9F77EF41F16BA0B620B730B840B65
:100E0000BAF09150A1F0FF0FBB1F661F771F881F1C
:100E1000C2F70EC0BA0F621F731F841F48F4879574
:100E200077956795B795F7959E3F08F0B0CF939566
:100E3000880F08F09927EE0F9795879508950E94DF
:100E4000610708F481E00895E89409C097FB3EF437
:100E500090958095709561957F4F8F4F9F4F992307
:100E6000A9F0F92F96E9BB279395F6958795779585
:100E70006795B795F111F8CFFAF4BB0F11F460FF45
:100E80001BC06F5F7F4F8F4F9F4F16C0882311F09D
:100E900096E911C0772321F09EE8872F762F05C0B1
:100EA000662371F096E8862F70E060E02AF09A954C
:100EB000660F771F881FDAF7880F9695879597F941
:100EC0000895990F0008550FAA0BE0E8FEEF1616DB
:100ED0001706E807F907C0F012161306E407F5072E
:100EE00098F0621B730B840B950B39F40A2661F0A2
:100EF000232B242B252B21F408950A2609F4A14045
:100F0000A6958FEF811D811D089597F99F6780E851
:100F100070E060E008959FEF80EC089500240A944B
:100F20001616170618060906089500240A941216C4
:100F30001306140605060895092E0394000C11F4F7
:100F4000882352F0BB0F40F4BF2B11F460FF04C0A4
:100F50006F5F7F4F8F4F9F4F089557FD9058440FFD
:100F6000551F59F05F3F71F04795880F97FB991F08
:100F700061F09F3F79F087950895121613061406C5
:100F8000551FF2CF4695F1DF08C016161706180652
:100F9000991FF1CF86957105610508940895E8942D
:100FA000BB2766277727CB0197F908950E94610731
:100FB00008F48FEF08950E94EE070C949C070E949E
:100FC0008E0738F00E94950720F0952311F00C94BD
:100FD00085070C948B0711240C94D0070E94AD0751
:100FE00070F3959FC1F3950F50E0551F629FF0017C
:100FF000729FBB27F00DB11D639FAA27F00DB11D95
:10100000AA1F649F6627B00DA11D661F829F22271D
:10101000B00DA11D621F739FB00DA11D621F839FA4
:10102000A00D611D221F749F3327A00D611D231F7A
:10103000849F600D211D822F762F6A2F11249F57C8
:1010400050409AF0F1F088234AF0EE0FFF1FBB1FCB
:10105000661F771F881F91505040A9F79E3F51058A
:1010600080F00C9485070C94D0075F3FE4F3983E22
:10107000D4F3869577956795B795F795E7959F5F34
:10108000C1F7FE2B880F911D9695879597F90895C6
:04109000F894FFCF02
:1010940000000000FF005F008C004C01BD009B00BD
:1010A400AF00AA55656D6265646465642D69636308
:1010B4002D756E6F3A20494343203144206D6F648F
:1010C400656C2072756E6E696E67000D0A00706142
:0E10D400636B65745F666C6F6174733D000042
:00000001FF
